:100000000C941A010C9442010C9442010C9442018C
:100010000C9442010C9442010C9442010C94420154
:100020000C9442010C9442010C9408070C9485072F
:100030000C9442010C9442010C9442010C94420134
:100040000C9442010C9423060C9442010C9442013E
:100050000C9442010C9442010C9442010C94D90579
:100060000C9442010C9442010C9442010C94420104
:100070000C9442010C9442010C9442010C944201F4
:100080000C9442010C9442010C9442010C944201E4
:100090000C9442010C9442010C9442010C944201D4
:1000A0000C9442010C9442010C9442011B5B3147B9
:1000B0001B5B730000000000240027002A002D00B5
:1000C000300000000000250028002B002E00310029
:1000D000050607080D0E0F104952004F4B004F4BFD
:1000E00000524550454154004552524F520045522E
:1000F000524F52001B5B751B5B304B004552524FF9
:1001000052001B5B751B5B304B001B5B754D5558DC
:10011000201B5B73004552524F52001B5B751B5BEB
:10012000304B001B5B7546524551201B5B730041F1
:100130005343494900414E5349001B5B75001B5B0B
:1001400073005258200043414E43454C001B5B75E1
:100150001B5B304B00080B00020202000009040088
:100160000001020200000524001001052401010124
:10017000042402060524060001070581031000403F
:1001800009040100020A0000000705020240000005
:10019000070583024000000403090412010002EF76
:1001A00002014041233680000101020301417264D3
:1001B00075696E6F204C4C430055534220494F20C7
:1001C000426F6172640000000000230026002900D5
:1001D0002C002F000404040404030405020202029C
:1001E00004030202020206060606060604040202D0
:1001F00002040404080201104080401020408040A6
:10020000800802040180402010020110801020406C
:1002100040200000000200090F0000030401000C50
:1002200000000000000000000000000000000000CE
:100230000000B70911241FBECFEFDAE0DEBFCDBF4B
:1002400029E0ACE2B1E001C01D92A83CB207E1F7A1
:1002500011E0A0E0B1E0E8E2FFE102C005900D92FC
:10026000AC32B107D9F711E0CAE1D1E004C021975F
:10027000FE010E948C0FC931D107C9F70E94DA092B
:100280000C94C70E0C94000083E08093E9008091E9
:10029000F200882319F08AE38093E8000895FC01B6
:1002A00080916B01882311F13FB7F89482E080932D
:1002B000E9002091F200822F90E01816190614F43C
:1002C00081E090E0882339F0289844E640936A0161
:1002D0004091F1004083222339F02091F200211156
:1002E00003C02BE62093E8003FBF08958FEF9FEFF8
:1002F00008952FB7F89483E08093E9009091E80087
:10030000892F807295FF04C09091F20080E4891BD0
:100310002FBF08958091620181110DC082E080930A
:100320005E0184E080935F01109261011092600190
:1003300081E0809362018EE591E008953FB7F894E3
:1003400080915A0190915B01A0915C01B0915D0197
:1003500026B5A89B05C02F3F19F00196A11DB11D20
:100360003FBFBA2FA92F982F8827BC01CD01620F5C
:10037000711D811D911D42E0660F771F881F991F17
:100380004A95D1F70895CF92DF92EF92FF920E94A3
:100390009E016B017C010E949E016C197D098E09F2
:1003A0009F09683E734081059105A8F3FF90EF9087
:1003B000DF90CF9008958F929F92AF92BF92CF928D
:1003C000DF92EF92FF926B017C010E949E014B0134
:1003D0005C0184E0C81AD108E108F108C80CD91CF6
:1003E000EA1CFB1CC814D904EA04FB0438F40E947C
:1003F0009E0186169706A806B906C8F30E949E01BC
:100400006C157D058E059F05C8F3FF90EF90DF907A
:10041000CF90BF90AF909F908F900895EF92FF92F2
:100420000F931F93CF93DF938C017B01D0E0C0E04B
:10043000CE15DF05F9F0FE01EE0FFF1FE00FF11FF3
:1004400020813181AAE0B0E00E944A0FC0FF0EC0B7
:10045000209180002F772093800065307105810501
:10046000910510F00E94DB012196E2CF20918000DF
:100470002068F1CF809180008F7780938000DF919A
:10048000CF911F910F91FF90EF90089540914F01F0
:100490005091500120914D0130914E014217530768
:1004A000B4F49091E8009570E1F39091E80092FD2A
:1004B00019C08093F10080914F01909150010196F5
:1004C0008F739927892B19F48EEF8093E800809120
:1004D0004F019091500101969093500180934F01EC
:1004E00081E0089580E00895EF92FF920F931F93AB
:1004F000CF93DF93F82E192FE62E042F81E0860F7D
:10050000880F0E94460283E00E944602CF2DD12F21
:10051000EC0EFD2EF11CCE15DF05B9F007FF13C060
:10052000FE0184910E944602182F80E00E9446023C
:10053000812321968111EFCFDF91CF911F910F91F0
:10054000FF90EF9008958881EDCF81E0F5CFDF92A5
:10055000EF92FF920F931F93CF93DF93D82E8A01D0
:10056000EB017B01E40EF51ECE15DF0559F0D7FE39
:1005700012C0FE0184910E94460221968111F4CF9F
:100580000FEF1FEFC801DF91CF911F910F91FF90E7
:10059000EF90DF9008958881EECF0F931F93CF9354
:1005A000DF931F92CDB7DEB782E0898342E450E04B
:1005B00065E571E080E80E94A7020E948A01DC01E3
:1005C00012960D911C910115110589F0D801ED913C
:1005D000FC910280F381E02DBE016F5F7F4FC80167
:1005E000099597FD04C0F80100851185ECCF89813C
:1005F0000F90DF91CF911F910F910895615030F0CE
:100600002091F100FC0120830196F8CF289884E620
:1006100080936A0108950C9444018F929F92AF9247
:10062000BF92CF92DF92EF92FF920F931F93CF93DF
:10063000DF936C017B018A0180910E01882309F40C
:1006400058C080916B01882309F453C080915301F5
:1006500080FF05C08091E00082608093E000E801A7
:10066000B12C8AEFA82E93E0892E2AE3922E2097B0
:1006700011F4BB20B9F10E947901811106C0AA943E
:10068000AA20B9F10E94C301F2CF8C171D0611F008
:100690000CF08C2F9FB7F8948092E9002091E8002D
:1006A00025FD02C09FBFE3CF282F30E0C21BD30B34
:1006B000F701815020F041914093F100FACFE20E12
:1006C000F31EBB2021F09092E800B12CEBCF80917B
:1006D000E80085FDE7CF9092E800BB24B394209713
:1006E00009F3F3CF5D9884E6809354011016110648
:1006F0003CF081E090E0F6019383828310E000E01B
:10070000C801DF91CF911F910F91FF90EF90DF9083
:10071000CF90BF90AF909F908F900895CF93DF932D
:100720001F92CDB7DEB76983DC01ED91FC910280A9
:10073000F381E02D41E050E0BE016F5F7F4F0995EE
:100740000F90DF91CF9108950F931F93CF93DF9375
:100750008C01D0E0C0E0F801EC0FFD1F649166232E
:1007600041F08CE691E00E948E03892B11F02196D6
:10077000F2CFCE01DF91CF911F910F9108950E948A
:10078000790190E00895CF93DF931F92CDB7DEB744
:10079000FC018485958597FD08C02FEF3FEF3587D5
:1007A00024870F90DF91CF910895CE0101960E948A
:1007B0004F01019719F4898190E0F3CF8FEF9FEFFC
:1007C000F0CF0F931F93CF93DF931F92CDB7DEB778
:1007D0008C01FC018485958597FF0BC0CE010196A5
:1007E0000E944F01019771F4898190E0F80195878B
:1007F0008487F801848595850F90DF91CF911F91B3
:100800000F9108958FEF9FEFF1CFFC0184859585BF
:1008100097FD0BC09FB7F89482E08093E900809128
:10082000F2009FBF90E0019608959FB7F89482E090
:100830008093E9008091F2009FBF90E0089581507D
:100840008F3008F047C0E82FF0E0E75DFB4F0C94D5
:100850008C0F46044A0438043E0442046A046A04C5
:100860006A044D04530457045B0461046A0465047C
:10087000809180008F778093800008958091800020
:100880008F7DF9CF80918000877FF5CF84B58F77FA
:1008900084BD089584B58F7DFBCF809190008F77C4
:1008A000809390000895809190008F7DF9CF809182
:1008B0009000877FF5CF8091C0008F778093C00034
:1008C00008958091C0008F7DF9CF8091C200877F0D
:1008D0008093C20008951F93CF93DF93282F30E0B9
:1008E000F901EE5EFD4F8491F901ED50FE4FD49178
:1008F000F901EC52FE4FC491CC23A9F0162F8111BF
:100900000E941F04EC2FF0E0EE0FFF1FEE53FF4F8D
:10091000A591B4918FB7F894EC91111108C0D095BE
:10092000DE23DC938FBFDF91CF911F910895DE2BE3
:10093000F8CFCF93DF9390E0FC01ED50FE4F249170
:100940008C529E4FFC0184918823D1F090E0880F57
:10095000991FFC01EC54FF4FA591B491FC01EE539B
:10096000FF4FC591D49161110EC09FB7F8948C913F
:10097000E22FE0958E238C932881E223E8839FBFAA
:10098000DF91CF9108958FB7F894EC91E22BEC931F
:100990008FBFF6CFF8941092800089E08093810099
:1009A00080E293E090938900809388001092850004
:1009B0001092840082E080936F007894ECEBF1E079
:1009C00080831482818160E00C949904CF93C82FB6
:1009D00010926F0061E089E00E94990460E089E074
:1009E0000E946B042C2F30E050E040E060E47FE197
:1009F00080E090E00E946D0F82E08093800081E1B2
:100A0000809381003093870020938600C90163E0C2
:100A100070E00E94590F7093890060938800CF9115
:100A200008958CE691E00E940504892BD1F38CE6B1
:100A300091E00E94C3030895CF930E941105C82F2F
:100A40000E9411059C2FCF910895EF92FF920F9372
:100A50001F93CF93DF93D0E0C0E0EE24E394F12C1A
:100A6000082F10E0FE01E053FF4F8491882379F0B6
:100A700097010C2E02C0220F331F0A94E2F72023A5
:100A8000312361E0232B09F460E00E946B0421967E
:100A9000C830D10539F7DF91CF911F910F91FF90A9
:100AA000EF90089580914401811123C08FEF0E943F
:100AB00025050E94CA0410924C0110924B0110921D
:100AC0004A0110923C0110923B011092320186E2E1
:100AD00090E0909301018093000110923D0180917C
:100AE0000201882331F08CEA90E00E94A4030C9468
:100AF00044010895FC0101900020E9F73197AF010E
:100B0000481B590BBC018CE691E00C940D038F92AD
:100B10009F92AF92BF920F931F93CF93DF93CDB766
:100B2000DEB7A1970FB6F894DEBF0FBECDBF19A2F6
:100B3000423008F44AE08E010F5D1F4F842E912C45
:100B4000B12CA12CA50194010E94E60EE62FB9015B
:100B5000CA01EA30F4F4E05DD801EE938D01232B55
:100B6000242B252B79F790E080E0109719F0CD0128
:100B70000E947A05A1960FB6F894DEBF0FBECDBFD6
:100B8000DF91CF911F910F91BF90AF909F908F9069
:100B90000895E95CE1CFCF93DF930E94A403EC01B9
:100BA00088E291E00E947A058C0F9D1FDF91CF9122
:100BB00008951F920F920FB60F9211242F933F9317
:100BC0008F939F93AF93BF9380915601909157015C
:100BD000A0915801B09159013091550123E0230FA4
:100BE0002D3758F50196A11DB11D20935501809315
:100BF000560190935701A0935801B09359018091E9
:100C00005A0190915B01A0915C01B0915D01019648
:100C1000A11DB11D80935A0190935B01A0935C01CB
:100C2000B0935D01BF91AF919F918F913F912F91B3
:100C30000F900FBE0F901F90189526E8230F029675
:100C4000A11DB11DD2CF1F920F920FB60F9211248A
:100C50002F933F934F935F936F937F938F939F93C4
:100C6000AF93BF93CF93DF93EF93FF932091BD0199
:100C700030E0F901EE5EFD4F8491F901ED50FE4F39
:100C8000D491F901EC52FE4FC491CC2379F081113B
:100C90000E941F04EC2FF0E0EE0FFF1FEA53FE4FFF
:100CA000A591B491EC91ED2381E009F480E02091CD
:100CB000C1013091C2012F5F3F4F3093C201209399
:100CC000C1019091C0019091BC01943009F472C0AF
:100CD000B8F49230F1F0933009F44AC09091BF011A
:100CE000992309F478C0811189C08091BE018823BD
:100CF00009F470C08091BE0161E00E946B046BC07A
:100D0000953009F464C0963049F791E09093C50995
:100D10005CC08111E3CF2091C1013091C201283C18
:100D2000310528F41092C2011092C101D7CF109260
:100D3000C5091092C0014091C3015091C401909126
:100D4000C00121E0290F2093C001292F30E0220F9C
:100D5000331F240F351F4091C1015091C201F90189
:100D6000518340831092C2011092C10193E01FC0D1
:100D7000813009F0B3CF4091C3015091C4019091EB
:100D8000C00121E0290F2093C001292F30E0220F5C
:100D9000331F240F351F4091C1015091C201F90149
:100DA000518340831092C2011092C10194E090934C
:100DB000BC0194CF882309F4BECF2091C1013091AA
:100DC000C201293C310508F489CF95E0F0CF8111AB
:100DD00085CFA8CF2D9AFF91EF91DF91CF91BF9151
:100DE000AF919F918F917F916F915F914F913F91C3
:100DF0002F910F900FBE0F901F9018958091BE01FC
:100E0000882321F08091BE0160E077CF2D98E3CF59
:100E10001F920F920FB60F9211242F933F934F936F
:100E20005F936F937F938F939F93AF93BF93CF9372
:100E3000EF93FF93C091E1008091E100837F809365
:100E4000E100C3FF0FC01092E90081E08093EB0046
:100E50001092EC0082E38093ED0010926B0188E029
:100E60008093F000C2FF1AC00E9444018091540197
:100E7000882341F080915401815080935401811165
:100E800001C05D9A80916A01882341F080916A01D6
:100E9000815080936A01811101C0289AC4FF23C048
:100EA0008091E2008E7E81608093E2008091E1007B
:100EB0008F7E8093E100809153018E7E80618093CC
:100EC0005301FF91EF91CF91BF91AF919F918F917E
:100ED0007F916F915F914F913F912F910F900FBE36
:100EE0000F901F901895C0FFECCF8091E2008E7E8E
:100EF00080618093E2008091E1008E7E8093E1002A
:100F0000809153018E7E8160DACF1F920F920FB6CF
:100F10000F921124CF92DF92EF92FF920F931F93C3
:100F20002F933F934F935F936F937F938F939F93F1
:100F3000AF93BF93EF93FF93CF93DF93CDB7DEB71C
:100F40006C97DEBFCDBF1092E9008091E80083FF6F
:100F500025C068E0CE0145960E94FE0282EF809394
:100F6000E8008D8987FF39C09091E80090FFFCCFA1
:100F7000982F907609F034C19E894F89588D2F891A
:100F8000F88C911131C0803861F5809152018093C5
:100F9000F1001092F1008EEF8093E8006C960FB68E
:100FA000F894DEBF0FBECDBFDF91CF91FF91EF91DF
:100FB000BF91AF919F918F917F916F915F914F9171
:100FC0003F912F911F910F91FF90EF90DF90CF9065
:100FD0000F900FBE0F901F9018959EEF9093E80012
:100FE000C7CF1092F100D5CF913059F48111D3CFF2
:100FF0004130510581F6809152018D7F80935201DD
:10100000CACF933049F48111C6CF4130510519F64A
:10101000809152018260F2CF953041F48091E800D6
:1010200080FFFCCF20682093E300B5CF963009F015
:10103000A9C00B8D1C8D22E01092E9001092500186
:1010400010924F01F2122EC010924E0110924D01DB
:101050000E94CD021F8299E09983FA8291E09E83DB
:1010600090EA98879AEF998720914F01309150012B
:10107000275F3F4F3C832B838D831092E9001092B2
:10108000500110924F0110934E0100934D0149E021
:1010900050E0BE016F5F7F4F80E00E94A7020E9478
:1010A000CD0279CF10934E0100934D010E948A0129
:1010B000DC0112960D911C910115110509F451C125
:1010C000D801ED91FC910480F581E02DBE016B5EAD
:1010D0007F4FC8010995009709F03EC1F8010085CE
:1010E0001185EACFF3E0FF120EC08F89882309F43F
:1010F00040C0823061F440E86CE089EB91E00E94EE
:101100007402811148CF81E28093EB0047CF813098
:1011100029F440E86BE08DEA91E0F1CF833099F754
:101120000E948A01DC011296ED90FC908E010F5F07
:101130001F4F6801E114F10479F0D701ED91FC91A2
:101140000680F781E02DB801C7010995080F111D30
:10115000F701E084F184EECFD8011C92F6010190F2
:101160000020E9F73197BF016C197D0940E0C60105
:10117000C6CF67E971E0FB01449150E080E80E942E
:10118000A70209CF973009F4BECF983021F481E04F
:101190008093F10000CF993009F0FDCE837009F003
:1011A000B2CFE0E1F1E081E031E096E3219122234A
:1011B00071F08093E9003093EB00DF0111972C91DF
:1011C0002093EC009093ED008F5F873079F78EE7E6
:1011D0008093EA001092EA008F8980936B01DBCE46
:1011E0008B8D9C8D1092E9001092500110924F014E
:1011F00090934E0180934D01898D811192C08E890B
:101200009D89913A49F4813209F07DCF47E050E061
:1012100067E071E080E0B3CF913209F074CF8332A0
:1012200069F48F89988DB0E0A0E0809303019093DA
:101230000401A0930501B0930601ADCE803269F49C
:101240008091E80082FFFCCF67E087E091E00E9498
:10125000FE028BEF8093E8009ECE823209F09BCE97
:101260008F8980930E01EEEFFFE7859194918B3F7C
:101270009C4D51F1E0E0F8E0809107019091080168
:10128000A0910901B0910A01803B9440A105B105EC
:10129000F1F480910E0180FD1AC0EE3F8AE0F8075C
:1012A00089F587E797E79183808380916000809339
:1012B000510188E19BE00FB6F894A89580936000F7
:1012C0000FBE9093600067CEEEEFFAE0D5CF80813D
:1012D00091818737974709F05ECEA895809160008D
:1012E0008861809360008091510180936000EE3F9F
:1012F0002AE0F20789F08091FE0A9091FF0A91831B
:10130000808349CE808191818737980751F29093ED
:10131000FF0A8093FE0AC5CF1092FF0A1092FE0AC0
:101320003ACE0E948A01DC0112960D911C910115A2
:10133000110509F4E8CED801ED91FC910190F081FE
:10134000E02DBE016B5E7F4FC8010995811123CE50
:10135000F80100851185EBCF181619060CF41BCE89
:10136000D2CEF1E0FF12BECE6BE971E004CFCF9395
:10137000DF93ECE6F1E01382128288EE93E0A0E0C6
:10138000B0E084839583A683B7838AE191E091835B
:1013900080838FEF9FEF95878487CCEBD1E084E04B
:1013A00089838DE08A8361E00E9499041B82DF912A
:1013B000CF910895789484B5826084BD84B58160AE
:1013C00084BD85B5826085BD85B5816085BD809110
:1013D0006E00816080936E00109281008091810088
:1013E0008260809381008091810081608093810080
:1013F0008091800081608093800080919100826064
:101400008093910080919100816080939100809100
:1014100090008160809390008091C10084608093EF
:10142000C1008091C10082608093C1008091C100A1
:1014300081608093C1008091C30081608093C3006C
:101440008091C00082608093C0008091C200816062
:101450008093C20080917A00846080937A008091AA
:101460007A00826080937A0080917A008160809314
:101470007A0080917A00806880937A0010926B01E4
:1014800010925201109253018091D7008160809395
:10149000D70080EA8093D80089B5806189BD89B57D
:1014A000826089BD09B400FEFDCF0E94C301809116
:1014B000D8008F7C80618093D8008091E000807F8D
:1014C0008093E0008091E1008E7E8093E1008DE0CA
:1014D0008093E200559A209A8FEF9FEF90937901C5
:1014E0008093780185E090E090932D0180932C010A
:1014F00085EC91E09093C4018093C301C0EDD0E0EE
:10150000FE018491882319F061E00E9499042196DC
:10151000F0E0C83DDF07A1F78FEF0E94250560E0EE
:1015200084E00E9499040E94CA04AAE04A2E512C29
:10153000612C712CB0E02B2EB0E03B2EFF24F394F5
:10154000C5E0EC2EF2E09F2E00914B0110914C0172
:101550000115110509F0ACC080914A018111A8C0A4
:101560008091C509809349018091BC01853009F0C3
:101570009FC08091C001882309F49AC08091C30163
:101580009091C40190934601809345018091C001E0
:1015900090E090934801809347011092C0018091A0
:1015A000C3019091C401855C914009F048C085EC6D
:1015B00095E09093C4018093C301809144018823F6
:1015C00009F444C062E08CE691E00E948E036091D1
:1015D00048018CE691E00E948E03609147018CE601
:1015E00091E00E948E038091470190914801081775
:1015F000190708F059C09801220F331F8091450147
:1016000090914601820F931FFC01208131818091CE
:101610002C0190912D01289FE001299FD00D389F2A
:10162000D00D11246D2F8CE691E00E948E036C2F5B
:101630008CE691E00E948E030F5F1F4FD4CFE5EC44
:10164000F1E0F093C401E093C301B7CF88ED90E0DF
:101650000E94A4038091470190914801081719073F
:10166000D8F460E28CE691E00E948E039801220F8C
:10167000331F8091450190914601820F931FFC0119
:1016800020813181A2E3B0E00E944A0F4AE00E942B
:1016900087050F5F1F4FDECF8AE291E00E947A0537
:1016A00088E291E00E947A059092BC011092C001FC
:1016B0008CE691E00E940504892B09F476C28CE641
:1016C00091E00E94C303C82F80914401882309F44C
:1016D0008EC0C13009F07EC0E092BC011092C00102
:1016E0000E941105882E809343010E94110580936A
:1016F00042010E941C058C0190934101809340019E
:101700000E941C056C0190933F0180933E01D0E044
:10171000C0E0080F191FC017D10780F4A090C301C3
:10172000B090C401CE01880F991FA80EB91E0E9467
:101730001C05F501918380832196EDCF882D0E94B1
:10174000250566E0CD2809F464E08CE691E00E946E
:101750008E03809142010E94E604809180008F7781
:101760008093800068E873E180E090E00E94DB01F4
:10177000C0914001D09141018091C3019091C40179
:10178000BE010E940E0200913E0110913F01011521
:101790001105D9F0CC0FDD1F8CE691E00E94050405
:1017A000892B51F48091C3019091C401B8018C0F31
:1017B0009D1F0E940E02F0CF8CE691E00E94C303B1
:1017C00064E08CE691E00E948E030E94CA040E94AD
:1017D00052056ECFCF3F31F464E08CE691E00E9479
:1017E0008E03F5CFC33099F710924401F0CFCF3F6D
:1017F00041F4F092440164E08CE691E00E948E0393
:1018000057CFC33011F0CB3191F48091020188237E
:1018100021F08DE491E00E94A40386E491E00E940F
:10182000CB050E945205CA3009F42BC141CF80ED8F
:101830008C0F8A3008F04BC080914B0190914C0185
:10184000892BD1F480914A01811116C080913D010C
:10185000811112C082E491E00E94A403E092BC01D5
:101860001092C00180910201882321F08EE391E063
:101870000E94A403F0923D01809102018823C9F0E7
:1018800080914A01811115C08AE391E00E94A4036E
:1018900060914B0170914C0180913B0190913C0112
:1018A000680F791F6F5F7F4F90E080E04AE00E94F1
:1018B000870580914A01E82FF0E0ED5CFE4FC08380
:1018C000883008F0B0CF8F5F80934A01ACCFC1342D
:1018D00081F48091020191E0982790930201813078
:1018E00029F085E391E00E94CB0571CF8FE291E072
:1018F000FACFC23539F480914A018111E5C0F092E6
:101900003201D6CEC634A9F580914A018111DCC0DE
:10191000809132018111D8C080914B0190914C018E
:10192000009709F4D1C04091020120912E0130911D
:101930002F013093010120930001019790934C01F6
:1019400080934B0183E291E0442309F4B1CE0E94DD
:10195000A40360914B0170914C0180913B019091E7
:101960003C01680F791F90E080E04AE00E94870503
:101970009FCECD34A9F580914A018111A5C08091F7
:1019800032018111A1C0C0914B01D0914C0120972F
:1019900009F49AC01091020180912E0190912F01BB
:1019A000A0913001B09131018F3F9105A105B105A2
:1019B00051F048F0112321F08BE191E00E94A40343
:1019C00085E191E090CF0E9425052197D0934C01AD
:1019D000C0934B01112309F46BCE8AE091E0B7CF9D
:1019E000C03219F0CA3009F06CC0E0914A01EE2310
:1019F00009F442C0F0E0ED5CFE4F108210924A0103
:101A00004AE050E070E060E083E391E00E94DC0D8A
:101A100060932E0170932F018093300190933101D8
:101A20002091C3013091C401A0904B01B0904C01B2
:101A300000913B0110913C016501C00ED11ECC0C00
:101A4000DD1CC20ED31EA30192010E94E60EF60118
:101A50003183208380913201882339F00F5F1F4F3B
:101A600010933C0100933B01DECEC501019690939B
:101A70004C0180934B01D7CEC03209F419CECA3045
:101A800001F580914B0190914C01892B09F410CE06
:101A900080910201882321F084EF90E00E94A4034A
:101AA00080914B0190914C0120913B0130913C0180
:101AB000AC01420F531F4115524089F48EEE90E065
:101AC00012CFCD3009F4F4CD80910201882321F0AA
:101AD00082E091E00E94A4038CEF90E004CF2115F6
:101AE000310509F442C0822B80FF03C088EE90E0EC
:101AF000FACE81EE90E00E94CB050E9444018091D5
:101B000000010E94E604809180008F77809380001E
:101B100068E873E180E090E00E94DB01C0914B0136
:101B2000D0914C018091C3019091C401BE010E94EB
:101B30000E02CC0FDD1F8CE691E00E940504892B7C
:101B400069F48091C3019091C40160913B0170914F
:101B50003C018C0F9D1F0E940E02EDCF8CE691E0A0
:101B60000E94C3038EED90E0BECE8BED90E00E940C
:101B7000CB050E944401809100010E94E6048091FF
:101B800080008F778093800068E873E180E090E0C8
:101B90000E94DB018091C3019091C40160914B01CF
:101BA00070914C010E940E0212CE2114310409F4EE
:101BB000CBCC0E940000C6CCB0E0A0E0E2EEFDE09D
:101BC0000C94140F5C016B017A016115710519F019
:101BD000FB0191838083E114F10449F0C70102976E
:101BE000839728F060E070E0CB019CC05E01E501C6
:101BF0002196F5011081812F90E00E94CA0E892B59
:101C0000A9F71D3209F056C02196F501118101E0B6
:101C1000E114F10409F4AEC0F0E1EF16F10409F0AB
:101C20008EC0103341F488818F7D883509F083C0E0
:101C3000198122960260E0E1EE2EF12C88248A942C
:101C4000982CA82CFFE0BF2E20E060E070E0CB01D4
:101C500027010F2C000C66087708FE0150ED352E89
:101C6000310E39E0331538F43FEB310F3A31A0F53E
:101C700049EC342E310E3E141F04BCF52F3FB9F051
:101C800086169706A806B90670F1A30192010E9474
:101C9000D60E232D30E050E040E0620F731F841F0A
:101CA000951F6217730784079507E8F021E02196D6
:101CB0001081D3CF1B3221F4E5012296F501118169
:101CC00000E0A6CF78E0E72EF12C88248A94982CA7
:101CD000A82C6FE1B62EB8CF3FE9310F3A3128F486
:101CE00039EA332EC7CF2FEFE2CFC114D10431F040
:101CF0002223E9F02197F601D183C08300FF07C0BA
:101D000090958095709561957F4F8F4F9F4F2F3F96
:101D100049F482E290E09093C7098093C6096FEF7F
:101D20007FEFCB01CDB7DEB7E1E10C94300F01FFBF
:101D3000E5CF2297E0CF10E3E114F10419F23AE085
:101D4000E316F104E9F080E1E816F10409F473CF39
:101D5000E8E0EE16F10409F4B8CF6FEF7FEFCB01A6
:101D600097010F2C000C440B550B0E94E60E490105
:101D70005A016ACF103309F456CF9AE0E92EF12CBC
:101D800089E9882E982CA82C89E1B82E5DCFF8948B
:101D90000C94920F91110C94D30E803219F089504B
:101DA0008550C8F70895992788270895DB018F93F8
:101DB0009F930E94080FBF91AF91A29F800D911D2C
:101DC000A39F900DB29F900D11240895A1E21A2EA9
:101DD000AA1BBB1BFD010DC0AA1FBB1FEE1FFF1FCF
:101DE000A217B307E407F50720F0A21BB30BE40B1F
:101DF000F50B661F771F881F991F1A9469F7609566
:101E00007095809590959B01AC01BD01CF0108951F
:101E10000E944A0FA59F900DB49F900DA49F800D26
:101E2000911D112408952F923F924F925F926F92CD
:101E30007F928F929F92AF92BF92CF92DF92EF925A
:101E4000FF920F931F93CF93DF93CDB7DEB7CA1BDB
:101E5000DB0B0FB6F894DEBF0FBECDBF09942A8806
:101E6000398848885F846E847D848C849B84AA84AE
:101E7000B984C884DF80EE80FD800C811B81AA813B
:101E8000B981CE0FD11D0FB6F894DEBF0FBECDBF06
:101E9000ED010895A29FB001B39FC001A39F700DF3
:101EA000811D1124911DB29F700D811D1124911D62
:101EB0000895AA1BBB1B51E107C0AA1FBB1FA61791
:101EC000B70710F0A61BB70B881F991F5A95A9F7E3
:101ED00080959095BC01CD010895052E97FB1EF4C9
:101EE00000940E94840F57FD07D00E94E60E07FC65
:101EF00003D04EF40C94840F509540953095219565
:101F00003F4F4F4F5F4F0895909580957095619525
:101F10007F4F8F4F9F4F0895EE0FFF1F0590F49155
:081F2000E02D0994F894FFCFB5
:101F2800260001FFFFFFFF00E100000000000000A5
:101F3800C18081000000000000008E030D03BF0374
:0C1F48000B030504C303E1030D0A0000B5
:00000001FF
