:100000000C941A010C9442010C9442010C9442018C
:100010000C9442010C9442010C9442010C94420154
:100020000C9442010C9442010C9409070C9486072D
:100030000C9442010C9442010C9442010C94420134
:100040000C9442010C9424060C9442010C9442013D
:100050000C9442010C9442010C9442010C94DA0578
:100060000C9442010C9442010C9442010C94420104
:100070000C9442010C9442010C9442010C944201F4
:100080000C9442010C9442010C9442010C944201E4
:100090000C9442010C9442010C9442010C944201D4
:1000A0000C9442010C9442010C9442011B5B3147B9
:1000B0001B5B730000000000240027002A002D00B5
:1000C000300000000000250028002B002E00310029
:1000D000050607080D0E0F104952004F4B004F4BFD
:1000E00000524550454154004552524F520045522E
:1000F000524F52001B5B751B5B304B004552524FF9
:1001000052001B5B751B5B304B001B5B754D5558DC
:10011000201B5B73004552524F52001B5B751B5BEB
:10012000304B001B5B7546524551201B5B730041F1
:100130005343494900414E5349001B5B75001B5B0B
:1001400073005258200043414E43454C001B5B75E1
:100150001B5B304B00080B00020202000009040088
:100160000001020200000524001001052401010124
:10017000042402060524060001070581031000403F
:1001800009040100020A0000000705020240000005
:10019000070583024000000403090412010002EF76
:1001A00002014041233680000101020301417264D3
:1001B00075696E6F204C4C430055534220494F20C7
:1001C000426F6172640000000000230026002900D5
:1001D0002C002F000404040404030405020202029C
:1001E00004030202020206060606060604040202D0
:1001F00002040404080201104080401020408040A6
:10020000800802040180402010020110801020406C
:1002100040200000000200090F0000030401000C50
:1002200000000000000000000000000000000000CE
:100230000000B80911241FBECFEFDAE0DEBFCDBF4A
:1002400029E0ACE2B1E001C01D92AA3CB207E1F79F
:1002500011E0A0E0B1E0E2E0FFE102C005900D9204
:10026000AC32B107D9F711E0CAE1D1E004C021975F
:10027000FE010E94790FC931D107C9F70E94DB093D
:100280000C94B40E0C94000083E08093E9008091FC
:10029000F200882319F08AE38093E8000895FC01B6
:1002A00080916D01882311F13FB7F89482E080932B
:1002B000E9002091F200822F90E01816190614F43C
:1002C00081E090E0882339F0289844E640936C015F
:1002D0004091F1004083222339F02091F200211156
:1002E00003C02BE62093E8003FBF08958FEF9FEFF8
:1002F00008952FB7F89483E08093E9009091E80087
:10030000892F807295FF04C09091F20080E4891BD0
:100310002FBF08958091640181110DC082E0809308
:10032000600184E080936101109263011092620188
:1003300081E08093640180E691E008953FB7F894EE
:1003400080915C0190915D01A0915E01B0915F018F
:1003500026B5A89B05C02F3F19F00196A11DB11D20
:100360003FBFBA2FA92F982F8827BC01CD01620F5C
:10037000711D811D911D42E0660F771F881F991F17
:100380004A95D1F70895CF92DF92EF92FF920E94A3
:100390009E016B017C010E949E016C197D098E09F2
:1003A0009F09683E734081059105A8F3FF90EF9087
:1003B000DF90CF9008958F929F92AF92BF92CF928D
:1003C000DF92EF92FF926B017C010E949E014B0134
:1003D0005C0184E0C81AD108E108F108C80CD91CF6
:1003E000EA1CFB1CC814D904EA04FB0438F40E947C
:1003F0009E0186169706A806B906C8F30E949E01BC
:100400006C157D058E059F05C8F3FF90EF90DF907A
:10041000CF90BF90AF909F908F90089540915101E1
:100420005091520120914F013091500142175307D2
:10043000B4F49091E8009570E1F39091E80092FD9A
:1004400019C08093F1008091510190915201019661
:100450008F739927892B19F48EEF8093E800809190
:100460005101909152010196909352018093510154
:1004700081E0089580E00895EF92FF920F931F931B
:10048000CF93DF93F82E192FE62E042F81E0860FED
:10049000880F0E940E0283E00E940E02CF2DD12F02
:1004A000EC0EFD2EF11CCE15DF05B9F007FF13C0D1
:1004B000FE0184910E940E02182F80E00E940E021D
:1004C000812321968111EFCFDF91CF911F910F9161
:1004D000FF90EF9008958881EDCF81E0F5CFDF9216
:1004E000EF92FF920F931F93CF93DF93D82E8A0141
:1004F000EB017B01E40EF51ECE15DF0559F0D7FEAA
:1005000012C0FE0184910E940E0221968111F4CF47
:100510000FEF1FEFC801DF91CF911F910F91FF9057
:10052000EF90DF9008958881EECF0F931F93CF93C4
:10053000DF931F92CDB7DEB782E0898342E450E0BB
:1005400065E571E080E80E946F020E948A01DC018B
:1005500012960D911C910115110589F0D801ED91AC
:10056000FC910280F381E02DBE016F5F7F4FC801D7
:10057000099597FD04C0F80100851185ECCF8981AC
:100580000F90DF91CF911F910F910895615030F03E
:100590002091F100FC0120830196F8CF289884E691
:1005A00080936C0108950C9444018F929F92AF92B6
:1005B000BF92CF92DF92EF92FF920F931F93CF9350
:1005C000DF936C017B018A0180910E01882309F47D
:1005D00058C080916D01882309F453C08091550162
:1005E00080FF05C08091E00082608093E000E80118
:1005F000B12C8AEFA82E93E0892E2AE3922E209721
:1006000011F4BB20B9F10E947901811106C0AA94AE
:10061000AA20B9F10E94C301F2CF8C171D0611F078
:100620000CF08C2F9FB7F8948092E9002091E8009D
:1006300025FD02C09FBFE3CF282F30E0C21BD30BA4
:10064000F701815020F041914093F100FACFE20E82
:10065000F31EBB2021F09092E800B12CEBCF8091EB
:10066000E80085FDE7CF9092E800BB24B394209783
:1006700009F3F3CF5D9884E68093560110161106B6
:100680003CF081E090E0F6019383828310E000E08B
:10069000C801DF91CF911F910F91FF90EF90DF90F4
:1006A000CF90BF90AF909F908F900895CF93DF939E
:1006B0001F92CDB7DEB76983DC01ED91FC9102801A
:1006C000F381E02D41E050E0BE016F5F7F4F09955F
:1006D0000F90DF91CF9108950F931F93CF93DF93E6
:1006E0008C01D0E0C0E0F801EC0FFD1F649166239F
:1006F00041F08EE691E00E945603892B11F021967D
:10070000F2CFCE01DF91CF911F910F9108950E94FA
:10071000790190E00895CF93DF931F92CDB7DEB7B4
:10072000FC018485958597FD08C02FEF3FEF358745
:1007300024870F90DF91CF910895CE0101960E94FA
:100740004F01019719F4898190E0F3CF8FEF9FEF6C
:10075000F0CF0F931F93CF93DF931F92CDB7DEB7E8
:100760008C01FC018485958597FF0BC0CE01019615
:100770000E944F01019771F4898190E0F8019587FB
:100780008487F801848595850F90DF91CF911F9123
:100790000F9108958FEF9FEFF1CFFC018485958530
:1007A00097FD0BC09FB7F89482E08093E900809199
:1007B000F2009FBF90E0019608959FB7F89482E001
:1007C0008093E9008091F2009FBF90E008958150EE
:1007D0008F3008F047C0E82FF0E0EF50FC4F0C944A
:1007E000790F0E041204000406040A0432043204D1
:1007F000320415041B041F042304290432042D04AD
:10080000809180008F778093800008958091800090
:100810008F7DF9CF80918000877FF5CF84B58F776A
:1008200084BD089584B58F7DFBCF809190008F7734
:10083000809390000895809190008F7DF9CF8091F2
:100840009000877FF5CF8091C0008F778093C000A4
:1008500008958091C0008F7DF9CF8091C200877F7D
:100860008093C20008951F93CF93DF93282F30E029
:10087000F901EE5EFD4F8491F901ED50FE4FD491E8
:10088000F901EC52FE4FC491CC23A9F0162F81112F
:100890000E94E703EC2FF0E0EE0FFF1FEE53FF4F37
:1008A000A591B4918FB7F894EC91111108C0D0952F
:1008B000DE23DC938FBFDF91CF911F910895DE2B54
:1008C000F8CFCF93DF9390E0FC01ED50FE4F2491E1
:1008D0008C529E4FFC0184918823D1F090E0880FC8
:1008E000991FFC01EC54FF4FA591B491FC01EE530C
:1008F000FF4FC591D49161110EC09FB7F8948C91B0
:10090000E22FE0958E238C932881E223E8839FBF1A
:10091000DF91CF9108958FB7F894EC91E22BEC938F
:100920008FBFF6CFF8941092800089E08093810009
:1009300080E293E090938900809388001092850074
:100940001092840082E080936F007894EEEBF1E0E7
:1009500080831482818160E00C946104EF92FF92A5
:100960000F931F93CF93DF938C017B01C42F1092C1
:100970006F0061E089E00E94610460E089E00E940C
:1009800033042C2F30E050E040E060E47FE180E071
:1009900090E00E945A0F82E08093800081E1809372
:1009A00081003093870020938600C90163E070E0E6
:1009B0000E94460F7093890060938800D0E0C0E0E9
:1009C000CE15DF05F9F0FE01EE0FFF1FE00FF11F5E
:1009D00020813181AAE0B0E00E94370FC0FF0EC035
:1009E000209180002F77209380006530710581056C
:1009F000910510F00E94DB012196E2CF209180004A
:100A00002068F1CF809180008F7780938000DF9104
:100A1000CF911F910F91FF90EF9008958EE691E096
:100A20000E94CD03892BD1F38EE691E00E948B03C7
:100A30000895CF930E940E05C82F0E940E059C2F8B
:100A4000CF910895EF92FF920F931F93CF93DF936F
:100A5000D0E0C0E0EE24E394F12C082F10E0FE017A
:100A6000E053FF4F8491882379F097010C2E02C048
:100A7000220F331F0A94E2F72023312361E0232B56
:100A800009F460E00E9433042196C830D10539F79B
:100A9000DF91CF911F910F91FF90EF90089580917A
:100AA0004601811127C08FEF0E9422050E94920407
:100AB00010924E0110924D0110924C0110923E0185
:100AC00010923D0110923C0110923B0110923201B4
:100AD00086E290E0909301018093000110923F0123
:100AE00080910201882331F08CEA90E00E946C032F
:100AF0000C9444010895FC0101900020E9F731971E
:100B0000AF01481B590BBC018EE691E00C94D50255
:100B10008F929F92AF92BF920F931F93CF93DF93C9
:100B2000CDB7DEB7A1970FB6F894DEBF0FBECDBF2D
:100B300019A2423008F44AE08E010F5D1F4F842E47
:100B4000912CB12CA12CA50194010E94D30EE62F6B
:100B5000B901CA01EA30F4F4E05DD801EE938D01E9
:100B6000232B242B252B79F790E080E0109719F0A8
:100B7000CD010E947B05A1960FB6F894DEBF0FBE93
:100B8000CDBFDF91CF911F910F91BF90AF909F90FC
:100B90008F900895E95CE1CFCF93DF930E946C03BF
:100BA000EC0188E291E00E947B058C0F9D1FDF9194
:100BB000CF9108951F920F920FB60F9211242F9389
:100BC0003F938F939F93AF93BF93809158019091E0
:100BD0005901A0915A01B0915B013091570123E076
:100BE000230F2D3758F50196A11DB11D20935701F4
:100BF0008093580190935901A0935A01B0935B01DF
:100C000080915C0190915D01A0915E01B0915F01C6
:100C10000196A11DB11D80935C0190935D01A0938D
:100C20005E01B0935F01BF91AF919F918F913F9112
:100C30002F910F900FBE0F901F90189526E8230F4D
:100C40000296A11DB11DD2CF1F920F920FB60F9227
:100C500011242F933F934F935F936F937F938F93C1
:100C60009F93AF93BF93CF93DF93EF93FF93209125
:100C7000BF0130E0F901EE5EFD4F8491F901ED50C6
:100C8000FE4FD491F901EC52FE4FC491CC2379F080
:100C900081110E94E703EC2FF0E0EE0FFF1FEA53F3
:100CA000FE4FA591B491EC91ED2381E009F480E031
:100CB0002091C3013091C4012F5F3F4F3093C40195
:100CC0002093C3019091C2019091BE01943009F428
:100CD00072C0B8F49230F1F0933009F44AC09091A8
:100CE000C101992309F478C0811189C08091C001A4
:100CF000882309F470C08091C00161E00E94330430
:100D00006BC0953009F464C0963049F791E0909338
:100D1000C7095CC08111E3CF2091C3013091C401A8
:100D2000283C310528F41092C4011092C301D7CF9A
:100D30001092C7091092C2014091C5015091C6019D
:100D40009091C20121E0290F2093C201292F30E0A8
:100D5000220F331F240F351F4091C3015091C4014E
:100D6000F901518340831092C4011092C30193E0B2
:100D70001FC0813009F0B3CF4091C5015091C60129
:100D80009091C20121E0290F2093C201292F30E068
:100D9000220F331F240F351F4091C3015091C4010E
:100DA000F901518340831092C4011092C30194E071
:100DB0009093BE0194CF882309F4BECF2091C30144
:100DC0003091C401293C310508F489CF95E0F0CF7A
:100DD000811185CFA8CF2D9AFF91EF91DF91CF910F
:100DE000BF91AF919F918F917F916F915F914F9143
:100DF0003F912F910F900FBE0F901F9018958091EB
:100E0000C001882321F08091C00160E077CF2D9848
:100E1000E3CF1F920F920FB60F9211242F933F939F
:100E20004F935F936F937F938F939F93AF93BF93F2
:100E3000CF93EF93FF93C091E1008091E100837F16
:100E40008093E100C3FF0FC01092E90081E080931E
:100E5000EB001092EC0082E38093ED0010926D01A4
:100E600088E08093F000C2FF1AC00E944401809184
:100E70005601882341F0809156018150809356019C
:100E8000811101C05D9A80916C01882341F08091AD
:100E90006C01815080936C01811101C0289AC4FFBC
:100EA00023C08091E2008E7E81608093E200809179
:100EB000E1008F7E8093E100809155018E7E8061FC
:100EC00080935501FF91EF91CF91BF91AF919F9189
:100ED0008F917F916F915F914F913F912F910F90E3
:100EE0000FBE0F901F901895C0FFECCF8091E200CD
:100EF0008E7E80618093E2008091E1008E7E8093FF
:100F0000E100809155018E7E8160DACF1F920F92B1
:100F10000FB60F921124CF92DF92EF92FF920F93B0
:100F20001F932F933F934F935F936F937F938F9371
:100F30009F93AF93BF93EF93FF93CF93DF93CDB77F
:100F4000DEB76C97DEBFCDBF1092E9008091E8005C
:100F500083FF25C068E0CE0145960E94C60282EF5D
:100F60008093E8008D8987FF39C09091E80090FF59
:100F7000FCCF982F907609F034C19E894F89588D07
:100F80002F89F88C911131C0803861F5809154011E
:100F90008093F1001092F1008EEF8093E8006C9640
:100FA0000FB6F894DEBF0FBECDBFDF91CF91FF919A
:100FB000EF91BF91AF919F918F917F916F915F91D1
:100FC0004F913F912F911F910F91FF90EF90DF90E4
:100FD000CF900F900FBE0F901F9018959EEF90939B
:100FE000E800C7CF1092F100D5CF913059F48111AC
:100FF000D3CF4130510581F6809154018D7F80938C
:101000005401CACF933049F48111C6CF4130510504
:1010100019F6809154018260F2CF953041F48091AD
:10102000E80080FFFCCF20682093E300B5CF963026
:1010300009F0A9C00B8D1C8D22E01092E9001092DE
:10104000520110925101F2122EC0109250011092D2
:101050004F010E9495021F8299E09983FA8291E0E4
:101060009E8390EA98879AEF998720915101309159
:101070005201275F3F4F3C832B838D831092E90001
:1010800010925201109251011093500100934F01A0
:1010900049E050E0BE016F5F7F4F80E00E946F0229
:1010A0000E94950279CF1093500100934F010E9446
:1010B0008A01DC0112960D911C910115110509F4AC
:1010C00051C1D801ED91FC910480F581E02DBE0164
:1010D0006B5E7F4FC8010995009709F03EC1F8018A
:1010E00000851185EACFF3E0FF120EC08F898823B7
:1010F00009F440C0823061F440E86CE089EB91E093
:101100000E943C02811148CF81E28093EB0047CFDF
:10111000813029F440E86BE08DEA91E0F1CF833033
:1011200099F70E948A01DC011296ED90FC908E01E5
:101130000F5F1F4F6801E114F10479F0D701ED91C1
:10114000FC910680F781E02DB801C7010995080FD1
:10115000111DF701E084F184EECFD8011C92F60155
:1011600001900020E9F73197BF016C197D0940E03B
:10117000C601C6CF67E971E0FB01449150E080E809
:101180000E946F0209CF973009F4BECF983021F446
:1011900081E08093F10000CF993009F0FDCE83709B
:1011A00009F0B2CFE0E1F1E081E031E096E3219196
:1011B000222371F08093E9003093EB00DF01119757
:1011C0002C912093EC009093ED008F5F873079F79E
:1011D0008EE78093EA001092EA008F8980936D0178
:1011E000DBCE8B8D9C8D1092E900109252011092F3
:1011F00051019093500180934F01898D811192C0CC
:101200008E899D89913A49F4813209F07DCF47E07A
:1012100050E067E071E080E0B3CF913209F074CF25
:10122000833269F48F89988DB0E0A0E08093030148
:1012300090930401A0930501B0930601ADCE8032D6
:1012400069F48091E80082FFFCCF67E087E091E0DD
:101250000E94C6028BEF8093E8009ECE823209F096
:101260009BCE8F8980930E01EEEFFFE785919491DD
:101270008B3F9C4D51F1E0E0F8E0809107019091A7
:101280000801A0910901B0910A01803B9440A10599
:10129000B105F1F480910E0180FD1AC0EE3F8AE0A5
:1012A000F80789F587E797E791838083809160004D
:1012B0008093530188E19BE00FB6F894A895809342
:1012C00060000FBE9093600067CEEEEFFAE0D5CFDE
:1012D000808191818737974709F05ECEA8958091EC
:1012E000600088618093600080915301809360006A
:1012F000EE3F2AE0F20789F08091FE0A9091FF0A02
:101300009183808349CE808191818737980751F2FC
:101310009093FF0A8093FE0AC5CF1092FF0A1092A5
:10132000FE0A3ACE0E948A01DC0112960D911C91B0
:101330000115110509F4E8CED801ED91FC91019059
:10134000F081E02DBE016B5E7F4FC80109958111D0
:1013500023CEF80100851185EBCF181619060CF481
:101360001BCED2CEF1E0FF12BECE6BE971E004CF0E
:10137000CF93DF93EEE6F1E01382128288EE93E0E2
:10138000A0E0B0E084839583A683B7838AE191E0EF
:10139000918380838FEF9FEF95878487CEEBD1E099
:1013A00084E089838DE08A8361E00E9461041B826E
:1013B000DF91CF910895789484B5826084BD84B51F
:1013C000816084BD85B5826085BD85B5816085BD40
:1013D00080916E00816080936E00109281008091F8
:1013E0008100826080938100809181008160809380
:1013F00081008091800081608093800080919100C5
:10140000826080939100809191008160809391002F
:10141000809190008160809390008091C1008460F1
:101420008093C1008091C10082608093C10080914F
:10143000C10081608093C1008091C300816080936E
:10144000C3008091C00082608093C0008091C20080
:1014500081608093C20080917A00846080937A00DA
:1014600080917A00826080937A0080917A00816016
:1014700080937A0080917A00806880937A0010923D
:101480006D0110925401109255018091D700816036
:101490008093D70080EA8093D80089B5806189BDA8
:1014A00089B5826089BD09B400FEFDCF0E94C301E9
:1014B0008091D8008F7C80618093D8008091E0007B
:1014C000807F8093E0008091E1008E7E8093E10038
:1014D0008DE08093E200559A209A8FEF9FEF9093D2
:1014E0007B0180937A0185E090E090932D018093B9
:1014F0002C0187EC91E09093C6018093C501C0ED6B
:10150000D0E0FE018491882319F061E00E9461041B
:101510002196F0E0C83DDF07A1F78FEF0E9422057A
:1015200060E084E00E9461040E9492041AE0412E6F
:10153000512C612C712C00E0202E00E0302EFF2475
:10154000F39485E0E82ED2E09D2E00914D0110919C
:101550004E010115110509F0ACC080914C018111BB
:10156000A8C08091C70980934B018091BE0185304E
:1015700009F09FC08091C201882309F49AC080912C
:10158000C5019091C60190934801809347018091D5
:10159000C20190E090934A01809349011092C201E8
:1015A0008091C5019091C601875C914009F048C0C7
:1015B00087EC95E09093C6018093C5018091460128
:1015C000882309F444C062E08EE691E00E9456034D
:1015D00060914A018EE691E00E94560360914901B4
:1015E0008EE691E00E9456038091490190914A0154
:1015F0000817190708F059C09801220F331F80916E
:10160000470190914801820F931FFC012081318195
:1016100080912C0190912D01289FE001299FD00DF0
:10162000389FD00D11246D2F8EE691E00E94560355
:101630006C2F8EE691E00E9456030F5F1F4FD4CFB0
:10164000E7ECF1E0F093C601E093C501B7CF88ED78
:1016500090E00E946C038091490190914A01081723
:101660001907D8F460E28EE691E00E9456039801D3
:10167000220F331F8091470190914801820F931FE1
:10168000FC0120813181A2E3B0E00E94370F4AE0E3
:101690000E9488050F5F1F4FDECF8AE291E00E9413
:1016A0007B0588E291E00E947B059092BE0110923A
:1016B000C2018EE691E00E94CD03892B09F462C23B
:1016C0008EE691E00E948B03C82F8091460188230B
:1016D00009F483C0C13009F073C0E092BE011092DA
:1016E000C2010E940E05882E809345010E940E05BE
:1016F000809344010E9419058C01909343018093CB
:1017000042010E9419056C019093410180934001B0
:10171000D0E0C0E0080F191FC017D10780F4A090D7
:10172000C501B090C601CE01880F991FA80EB91E41
:101730000E941905F501918380832196EDCF882DB4
:101740000E94220566E0CD2809F464E08EE691E06F
:101750000E945603D0904401C0914201D0914301B0
:101760008091C5019091C6014D2DBE010E94AE042D
:10177000009140011091410101151105E1F0CC0FDC
:10178000DD1F8EE691E00E94CD03892B59F48091F4
:10179000C5019091C6014D2DB8018C0F9D1F0E946F
:1017A000AE04EFCF8EE691E00E948B0364E08EE6FC
:1017B00091E00E9456030E9492040E944F0579CF47
:1017C000CF3F31F464E08EE691E00E945603F5CFFE
:1017D000C33099F710924601F0CFCF3F41F4F09219
:1017E000460164E08EE691E00E94560362CFC3306A
:1017F00011F0CB3191F480910201882321F08DE426
:1018000091E00E946C0386E491E00E94CC050E9466
:101810004F05CA3009F43DC14CCF80ED8C0F8A30A2
:1018200008F051C080914D0190914E01892BD1F467
:1018300080914C01811116C080913F01811112C02D
:1018400082E491E00E946C03E092BE011092C2011A
:1018500080910201882321F08EE391E00E946C03C5
:10186000F0923F01809102018823F9F080914C01B0
:1018700081111BC08AE391E00E946C0360914D01CD
:1018800070914E0180913D0190913E01680F791F4A
:101890006F5F7F4F80913B0190913C01680F791FF2
:1018A00090E080E04AE00E94880580914C01E82F9A
:1018B000F0E0ED5CFE4FC083883008F0AACF8F5F68
:1018C00080934C01A6CFC13481F48091020191E054
:1018D000982790930201813029F085E391E00E94DE
:1018E000CC056BCF8FE291E0FACFC23539F480910D
:1018F0004C018111F1C0F0923201DBCEC634D9F532
:1019000080914C018111E8C0809132018111E4C0C5
:1019100080914D0190914E01009709F4DDC04091F6
:10192000020120912E0130912F013093010120936B
:101930000001019790934E0180934D0183E291E065
:10194000442309F4B6CE0E946C0360914D0170915E
:101950004E0180913D0190913E01680F791F809169
:101960003B0190913C01680F791F90E080E04AE0D4
:101970000E9488059ECECD34A9F580914C0181113D
:10198000ABC0809132018111A7C0C0914D01D091AF
:101990004E01209709F4A0C01091020180912E0100
:1019A00090912F01A0913001B09131018F3F9105AD
:1019B000A105B10551F048F0112321F08BE191E030
:1019C0000E946C0385E191E08ACF0E942205219755
:1019D000D0934E01C0934D01112309F46ACE8AE0E1
:1019E00091E0B1CFC03219F0CA3009F072C0E09175
:1019F0004C01EE2309F448C0F0E0ED5CFE4F10828C
:101A000010924C014AE050E070E060E083E391E026
:101A10000E94C90D60932E0170932F0180933001B5
:101A2000909331012091C5013091C601C0904D01C4
:101A3000D0904E0100913B0110913C0140913D013D
:101A400050913E014C0D5D1D400F511F440F551F1D
:101A50005901A40EB51EA30192010E94D30EF501F7
:101A60003183208380913201882339F00F5F1F4F2B
:101A700010933C0100933B01CCCEC601019690939C
:101A80004E0180934D01C5CEC03209F412CECA304A
:101A900001F580914D0190914E01892B09F409CEF9
:101AA00080910201882321F084EF90E00E946C0372
:101AB00080914D0190914E0120913B0130913C016C
:101AC000AC01420F531F4115524089F48EEE90E055
:101AD00006CFCD3009F4EDCD80910201882321F0AD
:101AE00082E091E00E946C038CEF90E0F8CE232B13
:101AF000B1F180FF03C088EE90E0F1CE81EE90E07E
:101B00000E94CC050E94440110910001C0914D013A
:101B1000D0914E018091C5019091C601412FBE0127
:101B20000E94AE04CC0FDD1F8EE691E00E94CD0333
:101B3000892B71F48091C5019091C60160913B01A0
:101B400070913C01412F8C0F9D1F0E94AE04ECCF81
:101B50008EE691E00E948B038EED90E0C0CE8BED7F
:101B600090E00E94CC050E9444018091C5019091B3
:101B7000C60160914D0170914E01409100010E949B
:101B8000AE041BCE2114310409F4DFCC0E94000006
:101B9000DACCB0E0A0E0EFECFDE00C94010F5C01CA
:101BA0006B017A016115710519F0FB019183808346
:101BB000E114F10449F0C7010297839728F060E02F
:101BC00070E0CB019CC05E01E5012196F50110811A
:101BD000812F90E00E94B70E892BA9F71D3209F0E2
:101BE00056C02196F501118101E0E114F10409F4D8
:101BF000AEC0F0E1EF16F10409F08EC0103341F4ED
:101C000088818F7D883509F083C019812296026012
:101C1000E0E1EE2EF12C88248A94982CA82CFFE089
:101C2000BF2E20E060E070E0CB0127010F2C000CFC
:101C300066087708FE0150ED352E310E39E0331578
:101C400038F43FEB310F3A31A0F549EC342E310E28
:101C50003E141F04BCF52F3FB9F086169706A80660
:101C6000B90670F1A30192010E94C30E232D30E04A
:101C700050E040E0620F731F841F951F62177307C7
:101C800084079507E8F021E021961081D3CF1B321D
:101C900021F4E5012296F501118100E0A6CF78E05C
:101CA000E72EF12C88248A94982CA82C6FE1B62E6C
:101CB000B8CF3FE9310F3A3128F439EA332EC7CF94
:101CC0002FEFE2CFC114D10431F02223E9F02197A4
:101CD000F601D183C08300FF07C090958095709571
:101CE00061957F4F8F4F9F4F2F3F49F482E290E0E5
:101CF0009093C9098093C8096FEF7FEFCB01CDB7EF
:101D0000DEB7E1E10C941D0F01FFE5CF2297E0CF94
:101D100010E3E114F10419F23AE0E316F104E9F0FA
:101D200080E1E816F10409F473CFE8E0EE16F1045F
:101D300009F4B8CF6FEF7FEFCB0197010F2C000CA8
:101D4000440B550B0E94D30E49015A016ACF103340
:101D500009F456CF9AE0E92EF12C89E9882E982CC7
:101D6000A82C89E1B82E5DCFF8940C947F0F9111C7
:101D70000C94C00E803219F089508550C8F7089530
:101D8000992788270895DB018F939F930E94F50E72
:101D9000BF91AF91A29F800D911DA39F900DB29F07
:101DA000900D11240895A1E21A2EAA1BBB1BFD0160
:101DB0000DC0AA1FBB1FEE1FFF1FA217B307E4072A
:101DC000F50720F0A21BB30BE40BF50B661F771F82
:101DD000881F991F1A9469F7609570958095909562
:101DE0009B01AC01BD01CF0108950E94370FA59F53
:101DF000900DB49F900DA49F800D911D1124089506
:101E00002F923F924F925F926F927F928F929F920A
:101E1000AF92BF92CF92DF92EF92FF920F931F93F8
:101E2000CF93DF93CDB7DEB7CA1BDB0B0FB6F894A9
:101E3000DEBF0FBECDBF09942A88398848885F84E9
:101E40006E847D848C849B84AA84B984C884DF805A
:101E5000EE80FD800C811B81AA81B981CE0FD11D3E
:101E60000FB6F894DEBF0FBECDBFED010895A29F5F
:101E7000B001B39FC001A39F700D811D1124911D5E
:101E8000B29F700D811D1124911D0895AA1BBB1BCB
:101E900051E107C0AA1FBB1FA617B70710F0A61B6A
:101EA000B70B881F991F5A95A9F780959095BC018B
:101EB000CD010895052E97FB1EF400940E94710F2A
:101EC00057FD07D00E94D30E07FC03D04EF40C94AC
:101ED000710F50954095309521953F4F4F4F5F4F73
:101EE000089590958095709561957F4F8F4F9F4F86
:101EF0000895EE0FFF1F0590F491E02D0994F894DA
:021F0000FFCF11
:101F0200260001FFFFFFFF00E100000000000000CB
:101F1200C18081000000000000005603D502870343
:0C1F2200D302CD038B03A9030D0A0000BD
:00000001FF
